:020000040800F2
:10640000D0310020756800087D6800087F680008AA
:1064100081680008836800088568000800000000A3
:106420000000000000000000000000008768000875
:1064300089680008000000008B68000837E0000849
:106440008F6800088F6800088F6800088F68000850
:106450008F6800088F6800088F6800088F68000840
:106460008F6800088F6800088F6800088F68000830
:106470008F6800088F6800088F6800088F68000820
:106480008F6800088F6800088F6800088F68000810
:106490008F6800088F6800088F6800088F68000800
:1064A0008F6800088F6800088F6800088F680008F0
:1064B0008F6800088F6800088F6800088F680008E0
:1064C0008F6800088F6800088F6800088F680008D0
:1064D0008F68000867E100084BE600088F68000835
:1064E0000FDB00088F6800088F68000800F002F8D2
:1064F00000F05AF80AA090E8000C82448344AAF104
:106500000107DA4501D100F04FF8AFF2090EBAE801
:106510000F0013F0010F18BFFB1A43F001031847D7
:1065200060960000809600000A444FF0000C10F8BE
:10653000013B13F0070408BF10F8014B1D1108BF01
:1065400010F8015B641E05D010F8016B641E01F8A1
:10655000016BF9D113F0080F1EBF10F8014BAD1CF1
:106560000C1B09D16D1E58BF01F801CBFAD505E00F
:1065700014F8016B01F8016B6D1EF9D59142D6D369
:10658000704700000023002400250026103A28BF91
:1065900078C1FBD8520728BF30C148BF0B60704795
:1065A0001FB51FBD10B510BD08F076FC1146FFF7F2
:1065B000F7FF07F03AFE08F0A8FC03B4FFF7F2FF7C
:1065C00003BC08F0AFFC000072B6704762B67047BB
:1065D00080F30888704780F310887047EFF31080CD
:1065E00072B670470CB50020019000909848006882
:1065F00040F480309649086000BF9548006800F478
:10660000003000900198401C0190009818B9019842
:10661000B0F5A06FF1D18E48006800F4003010B1E1
:106620000120009001E0002000900098012844D152
:106630008848006840F010008649086008460068F5
:1066400020F0030008600846006840F0020008607F
:106650007F4840687E494860084640684860084670
:10666000406840F4806048600846406820F47C1030
:1066700048600846406840F4E810486008460068F2
:1066800040F08070086000BF7148006800F0007042
:106690000028F9D06E48406820F003006C4948603B
:1066A0000846406840F00200486000BF6848406803
:1066B00000F00C000828F9D159E06648006840F065
:1066C0001000644908600846006820F00300086074
:1066D0000846006840F0020008605D4840685C4978
:1066E00048600846406848600846406840F480605A
:1066F00048600846006820F480300860084600685A
:1067000040F00100086000BF5148006808B901204E
:1067100000E0002000F002000028F5D14C4840685D
:1067200020F480304A4948600846406840F46010D0
:1067300048600846006840F08070086000BF444828
:10674000006800F000700028F9D04148406820F04F
:1067500003003F4948600846406840F00200486036
:1067600000BF3B48406800F00C000828F9D10CBD80
:1067700010B53748006840F0010035490860084608
:106780004068354908403249486008460068334946
:1067900008402F4908600846006820F480200860FF
:1067A0000846406820F4FE0048604FF41F008860EF
:1067B000FFF718FF2A4800682A49086010BDF0B5A5
:1067C000044600250023002600222148406800F0EE
:1067D0000C0525B1042D06D0082D2BD107E0224A47
:1067E0000020087028E0204A0120087024E01848A2
:1067F000406800F470131648406800F4803616B103
:106800000120087001E000200870022000EB934393
:106810001EB9164803FB00F20BE00D48406800F477
:10682000003018B1114803FB00F202E00E4803FBF0
:1068300000F201E00C4A00BF00BF05484068C0F309
:1068400003100B4F3D5CEA4022600120F0BD0000C8
:1068500000100240002002400000FFF8FFFFF6FE9B
:106860009003000808ED00E000127A0000093D00E6
:10687000000000200948804709480047FEE7FEE77E
:10688000FEE7FEE7FEE7FEE7FEE7FEE7FEE7FEE7E0
:1068900004480549034A054B70470000716700082A
:1068A000ED640008D0250020D0310020D025002044
:1068B00030B5884209D003460C4604E014F8015B69
:1068C00003F8015B521E002AF8D130BDF0B5034633
:1068D0008B420DD01D460C4608E015F8016B14F8EC
:1068E000017BBE4201D00120F0BD521E002AF4D12E
:1068F0000020F9E710B5034602E003F8011B521E21
:10690000002AFAD110BD70B588420AD203460C465F
:1069100004E014F8015B03F8015B521E002AF8D171
:106920000DE088420BD983188C1806E0651E2C46B2
:106930002E785D1E2B462E70521E002AF6D170BD99
:10694000F0B505460C4616462F46314614E011F8C0
:1069500001CB387884450DD1012200E0521CA242BF
:1069600004D211F801CBB85C8445F7D0A24201D122
:10697000881AF0BD5B1E491C002BE8D10020F8E707
:1069800070B5044600260E70254610460AE010F841
:10699000016B05F8016B0E78761C0E70067806B94F
:1069A00070BD5B1E002BF2D100260E7000BFF7E712
:1069B00070B505460C46607810B1012824D113E06B
:1069C0002946A01DD4F80C219047C0B2207000B910
:1069D0001FE000206071A078012802D1B248007A3F
:1069E00000E00120E07000BF62792178A01DD4F89A
:1069F0000831984720B1E078401EC0B2E07010B175
:106A00000120607005E000BF07F00DFB0020607002
:106A100000BF00BF70BD10B5A449A548FFF7C8FF6F
:106A2000A449A548FFF7C4FF10BD2DE9F041044675
:106A30000E46174625463146284602F044FE0128F8
:106A400005D12878032800D100E000BF00BF012055
:106A5000BDE8F0810146881E0C280FD2DFE800F067
:106A6000060E0E0A0E070E080E0B0E0C00BF00BF1E
:106A70000320704700BF00BF0620FAE700BF00BF39
:106A80000020F6E7F8B504460D26607800EB80009C
:106A90008A4901EB8000C56800270020009007F0BC
:106AA000EDFB6178884262DD00BFA17828688842EA
:106AB00049D12078022808D02078042805D02078F1
:106AC000072802D02078092827D1A86818B3607851
:106AD00000EB80007A4901EB4000807920B909265B
:106AE000607804F0AAFC2DE00121601C00F006FD96
:106AF000601CA96888470646022E23D12868CF2843
:106B000000D90126E07800909DF80020211D601D2D
:106B1000FFF7F9FE16E00A2614E02078052805D0D4
:106B200020780B2802D020780D280AD1E86830B1EF
:106B3000621D6946601CEB689847064602E00B261A
:106B400000E00C2612E0617801EB81015B4A02EB68
:106B5000810108698047791CC9B20F46884205DD6A
:106B600005F1140005460068FF289ED900BF9DF876
:106B70000000401CE07026713046F8BD2DE9F84356
:106B800005460F469046AC1D05F11B0004F11103AC
:106B9000621C39460090284602F0DDFA06460128BC
:106BA00025D104F11100FFF76DFF0646032E1ED01C
:106BB00006F05AFA607C022812D0607C05280FD0BB
:106BC000607C072802D0607C0B2801D1012E07D001
:106BD000607C092802D0607C0D2808D1012E06D0E7
:106BE000607CFFF737FF6074204602F00FF9012048
:106BF000BDE8F88310B54FF480623249324800F0A6
:106C000079FF4FF480623149294800F073FF00BFDB
:106C100000202F494870887008712E48C1F808017B
:106C20002D48C1F80C0100BF00BF00201F4948706B
:106C300001208870002008712848C1F80801284800
:106C4000C1F80C0100BF80222649274800F052FFFE
:106C500080222649184800F04DFF00BF002024493B
:106C600048708870012008712248C1F80801224844
:106C7000C1F80C0100BF00BF00200E494870012080
:106C8000887008711548C1F808011B48C1F80C014B
:106C900000BF1A4B05220021022003F0DDFD10BDCC
:106CA0000249C1F808017047841F0020F00A002043
:106CB000D0010020300E0020100C0020F8FA00084F
:106CC000BC230020E0010020C0010020E0050020DE
:106CD000E00900207D6B00086F6F0008F7DB0008FB
:106CE0008F6E0008200C0020000C0020A00C00205B
:106CF000200D00202B6A0008216D0008176A00088B
:106D000010B504460622CD49204600F041FF10BDD3
:106D100010B504460622CA49204600F039FF10BDCE
:106D20002DE9F04106460C4600BF04B967E000BFFC
:106D300000BF204600F0F4FE012800D15FE000BF54
:106D40000622BE49204600F0D3FF0546A56000BFDD
:106D5000204600F0E5FE012800D150E000BF0725E5
:106D6000A0682844401E6168B0FBF1F201FB1200EC
:106D70002168085C0830054400BFFA2D00D935E0D1
:106D800000BF00BF204600F0F4FEA84200D236E06B
:106D900000BF00BFA0682844801F6168B0FBF1F20B
:106DA00001FB12070623A64A3946204600F0CEFF13
:106DB00000B91BE000BF00BF2A463146204600F064
:106DC0001CFF00B91BE000BFB57900BFA81C81B251
:106DD000F01D00F061F900B111E000BF2A46F11D7D
:106DE0003046FFF790FD2846BDE8F081A068801D81
:106DF0006168B0FBF1F201FB1200A06000BF00204F
:106E0000F2E72DE9F04106460F46154600BF06B9E8
:106E10003BE000BF00BF06228849304600F0B8FEC4
:106E200000B932E000BFA9B2384600F035F9044697
:106E300000BFE9B2304600F01EFF00B925E000BFF8
:106E400000BF2A463946304600F0A2FE00B91CE0D9
:106E500000BF00BF2112304600F00DFF00B914E062
:106E600000BF00BFE1B2304600F005FF00B90CE002
:106E700000BF00BF06227249304600F089FE00B90B
:106E800003E000BF0120BDE8F0810020FBE72DE911
:106E9000F04106460C4600BF04B966E000BF00BFE3
:106EA000204600F066FE062800D85EE000BF0622FD
:106EB0006249204600F01CFF0546A56000BF204641
:106EC00000F02EFE012800D14FE000BFA068801D19
:106ED0006168B0FBF1F201FB120021680D5C00BF9C
:106EE000012D00D138E000BF0C3500BFFA2D03D9C9
:106EF00054A007F06DFF2FE000BF00BF204600F058
:106F000038FEA84203D255A007F062FF2DE000BF73
:106F100000BFA0682844801F6168B0FBF1F201FB4C
:106F200012070623464A3946204600F00FFF18B9DB
:106F30004FA007F04DFF0FE000BF00BF2A463146CB
:106F4000204600F05AFE18B94EA007F041FF0CE0B1
:106F500000BF2846BDE8F081A068801D6168B0FBD5
:106F6000F1F201FB1200A06000BF0020F2E770B553
:106F700004460E4631462046FFF789FF054665B1B7
:106F8000A01D07F0DEFE40B9A07E00F11D056019CE
:106F900006222B49FFF78CFCAD1D284670BDF0B5CD
:106FA000C1B006460F46144600BF06B944E000BF14
:106FB00000BFFA2C00D93FE000BF2246394601A8A5
:106FC000FFF776FCA1B201A800F066F8054600BF05
:106FD00006221A49304600F0DBFD00B92CE000BF64
:106FE0002A122046641C01A90A542046641C0D5430
:106FF00000BFE1B201A807F07CFE00B91CE000BFB1
:107000009DF8044000BFFA2C00D915E000BF00BF76
:10701000224601A9304600F0BBFD00B90CE000BFDC
:1070200000BF06220649304600F0B2FD00B903E079
:1070300000BF012041B0F0BD0020FBE75CF5000877
:1070400062F500086572726F723A6461746120744F
:107050006F6F206C6F6E67200A0000006572726FA0
:10706000723A7370616365206572726F72200A00F4
:107070006572726F723A7461696C206572726F72B8
:10708000200A00006572726F723A6765742065723B
:10709000726F72200A00000070B503460C4600258E
:1070A000002600210DE0585C80EA0502154810F822
:1070B000120080EA0605134830F812000612481C38
:1070C00081B2A142EFDB46EA052070BDF0B504466F
:1070D0000D46002600271612D7B200210DE0605C95
:1070E00080EA0603074810F8130080EA07060548FF
:1070F00030F813000712481C81B2A942EFDB47EABF
:107100000620F0BD68F50008014604E00A2000E012
:10711000401E0028FCD10A1EA1F10101F6D17047E2
:1071200010B5044605E007F037F840F2E630FFF707
:10713000EBFF201EA4F10104F5D110BD2DE9F041B3
:1071400080460E46154600F0FDF80746BC685049DB
:107150002068884219D16068B0F1FF3F15D060689F
:1071600098B16068B0F1443F0FD06068B0F1883FDB
:107170000BD048496068884207D0D4E90101C9436F
:10718000884202D16068286002E04FF0FF3028603A
:10719000281D06F062F8102030700120BDE8F08153
:1071A00070B586B00546142101A807F01DFE4FF00A
:1071B000FF30009000F0C6F80646B468A8780828AA
:1071C00002DA0F2006B070BD3149206888421DD117
:1071D0006068B0F1FF3F19D06068B8B16068B0F185
:1071E000443F13D06068B0F1883F0FD029496068F0
:1071F00088420BD0D4E90101C943884206D1D5F8B1
:1072000003106068884209D10120DBE72248016849
:1072100007204059814201D00E20D3E71F48049037
:1072200055F8030F1E49896841F001011C4A91601D
:1072300019490839096811601749091F096811605F
:1072400015490968116011460860096805911048E0
:1072500001902868029055F80309C043039001AAE1
:107260001421B06805F03DFF80B1D5F8030000900F
:107270006A460421442000F09DFB0A4B4FF47A72C9
:107280000021084603F0E8FA01209BE7022099E775
:107290005A3CC3A542455354F0F7FF1FA542BD5ABF
:1072A000003002406BDF000810B505F0D2FF84B259
:1072B000402C19D0802C17D0B4F5807F14D0B4F5B1
:1072C000C07F11D0B4F5007F0ED0B4F5407F0BD055
:1072D000B4F5806F08D01D4800684FF00061D1F808
:1072E0008013401AC0F38F24B4F5C07F1CD007DC94
:1072F000402C0FD0802C11D0B4F5807F1CD112E02F
:10730000B4F5007F11D0B4F5407F0FD0B4F5806F95
:1073100012D10CE00E480F49086011E00C481830FB
:107320000C4908600CE000BF00BF00BF00BF084868
:1073300030300849086003E000200649086000BFBB
:1073400000BF10BD034800687047000098030008A4
:1073500068F70008100000202DE9F04104460025E0
:107360000026002706F08AFF2178884202DC0020F0
:10737000BDE8F081207800EB8000FE4901EB800041
:10738000C56800BF61782868884201D12E7C12E070
:10739000217801EB8101F74A02EB810108698047FE
:1073A000791CC9B20F46884205DD05F11400054677
:1073B0000068FF28E6D900BF3046D9E7EE480068EC
:1073C00090F8000408B9012070470020FCE710B5D0
:1073D0000446FFF7F3FF012801D1002010BDE64865
:1073E000006890F80004A0422EDDE348006890F8A1
:1073F0000004401EA0420FD0DF4A126892F8002419
:10740000521EDD4B1B6803EB4211DB4A126802EB94
:1074100044102022FFF74CFAD749096891F800146C
:10742000491ED54A126802EB411020220021FFF7C5
:1074300061FAD148006890F80004401ECE490968FE
:1074400081F800040120C9E70020C7E72DE9F041D9
:1074500005460F460024A046002617B1012F48D14B
:1074600020E0002417E0C448006800EB44100078D6
:10747000297888420DD1C048006800EB441040785C
:107480006978884205D12046FFF7A1FF8046601E3B
:10749000C4B2601CC4B2B848006890F80004A042AE
:1074A000E1DC27E02846FFF757FF064606B3002435
:1074B00018E0B148006800EB441000782978884251
:1074C0000ED1FF2E06D0AC48006800EB4410C07F00
:1074D000B04205D12046FFF77AFF8046601EC4B255
:1074E000601CC4B2A448006890F80004A042E0DC2C
:1074F00000E000BF00BF4046BDE8F08170B5044623
:107500000D4606F0BBFE2178884201DC002070BDEC
:10751000FFF754FF012801D10020F8E7207820B1BF
:1075200029462046FFF792FFF1E70020EFE7924857
:10753000006890F80004202801DB0120704700203B
:10754000FCE770B504460D46A07FD0B1A07FFF28B0
:1075500002D0A07F401EA07704F11A0003F0B8FA11
:10756000642148433221B0FBF1F0206104F11C009A
:1075700003F0AEFA642148433221B0FBF1F06061C0
:1075800005E02878FFF723FF2878401E287070BD9B
:107590002DE9F04104460D260027607800EB8000BD
:1075A000744901EB8000C56806F068FE6178884286
:1075B0002BDD00BFA1782868884212D120780228EC
:1075C00008D02078042805D02078072802D0207819
:1075D000092805D1A86818B1601CA9688847064623
:1075E00012E0617801EB8101624A02EB81010869D6
:1075F0008047791CC9B20F46884205DD05F11400A9
:1076000005460068FF28D5D900BF3046BDE8F081A7
:1076100000B587B00020069006F0BEFDFFF7CEFE55
:10762000012801D107B000BD00200690F8E05248C3
:1076300000689DF8181000EB41100069B8B14E4881
:1076400000689DF8181000EB41100069401E4A497F
:1076500009689DF8182001EB421108610020464995
:1076600009689DF8182001EB42110876D3E000204C
:10767000414909689DF8182001EB421108613E4814
:1076800000689DF8181000EB4110007E30BB04200C
:107690008DF80400384800689DF8183000EB43105E
:1076A0008078C21C3448006800EB43110DF10500DE
:1076B000FFF7FEF801A8FFF76BFF01202E490968CC
:1076C0009DF8182001EB4211087600202A4909682C
:1076D0009DF8182001EB421148769CE02649096884
:1076E0009DF8182001EB4211888B03F095FA0028D1
:1076F0007ED0214800689DF8181000EB41104069C9
:10770000B8B11D4800689DF8181000EB41104069A1
:10771000401E194909689DF8182001EB4211486183
:107720000020154909689DF8182001EB42114876A0
:1077300071E00020104909689DF8182001EB421102
:1077400048610D4800689DF8181000EB4110407E1C
:10775000002860D104208DF80400074800689DF8D7
:10776000181000EB4110C07880F001000249096850
:1077700004E00000F8FA0008140000209DF818202A
:1077800001EB4211C870694800689DF8183000EBA1
:1077900043108078C21C6548006800EB43110DF16E
:1077A0000500FFF785F8614800689DF8181000EBA8
:1077B0004110C07880F001005C4909689DF81820EC
:1077C00001EB4211C87001A8FFF7E2FE0120574902
:1077D00009689DF8182001EB4211487600205349B2
:1077E00009689DF8182001EB421108764F4900E026
:1077F00008E009689DF8182001EB421006A9FFF780
:10780000A0FE08E0494909689DF8182001EB4210E4
:1078100006A9FFF796FE9DF81800401CC0B206901E
:107820004248006890F800049DF8181088423FF71D
:10783000FEAE00BFF6E670B5044600253C48007871
:1078400040B901203A4908703A4B32220021022007
:1078500003F002F8FFF76BFE002855D1A078C01C9A
:10786000C5B201212046FFF749FE334991F80014C3
:107870002E4A126802EB41102A462146FFF718F8FB
:1078800061192D4A92F80024284B1B6803EB421221
:1078900002F11A000522FFF70BF8601903F018F93E
:1078A000642148433221B0FBF1F0234991F80014E0
:1078B0001E4A126802EB41110861A91C601803F00E
:1078C00007F9642148433221B0FBF1F01A4991F8DD
:1078D0000014164A126802EB411148612046FFF776
:1078E0003BFD154991F80014104A126802EB411152
:1078F000C8770E48006890F80004401C0B490968DE
:1079000081F80004012070BD0020FCE77CB504462E
:107910000D468DF800408DF8015000208DF80200D2
:1079200001216846FFF7EAFD7CBD0000140000203D
:107930001800002011760008400F00202DE9F041CA
:1079400004460D46174628E0B4F5004F03D247F62B
:107950009C70854202D90020BDE8F08104F03F0010
:10796000C0F14000A84204D204F03F00C0F1400042
:1079700000E028460646F3B2A1B23A46A02005F040
:10798000E0FA00B90BE03444AD1B37444FF0FF314F
:10799000A02005F0C2FA00B901E0002DD4D100BF4B
:1079A0000DB90120D8E700221146104600F07AF800
:1079B0000020D1E72DE9F04104460D46174628E0A6
:1079C000B4F5004F03D247F69C70854202D90020DF
:1079D000BDE8F08104F03F00C0F14000A84204D2AD
:1079E00004F03F00C0F1400000E028460646F3B234
:1079F000A1B23A46A02005F0D7FA00B90BE0344412
:107A0000AD1B37446FF07041A02005F086FA00B935
:107A100001E0002DD4D100BF0DB90120D8E700222C
:107A20001146104600F03EF80020D1E72DE9F04164
:107A300004460D46174627E0B4F5004F03D247F63B
:107A40009C70854202D90020BDE8F08104F03F001F
:107A5000C0F14000A84204D204F03F00C0F1400051
:107A600000E028460646F3B2A1B23A46A02005F04F
:107A7000CBFA00B90AE03444AD1B6FF07041A0208E
:107A800005F04BFA00B901E0002DD5D100BF0DB9CA
:107A90000120D9E700221146104600F003F800202B
:107AA000D2E7000070B506460C46154626B1012EF9
:107AB00009D0022E12D109E0022003F050FC0C483C
:107AC00002F03CFF0BE006F08FFB08E02DB12B46E7
:107AD00005220021084602F0BFFE00E000BF00BF03
:107AE00024B1012C02D0204603F055FE70BD0000E9
:107AF0006BD00008034600BF0BB90020704700BFE1
:107B000019605A600020D86098600120F6E700BF35
:107B100000B9704700BF00218160C16000BFF8E775
:107B20000146D1E90202904201D1012070470020B4
:107B3000FCE70146C868401C4A68B0FBF2F302FB50
:107B400013008A68904201D1012070470020FCE7B1
:107B50000146D1E90202904204D9D1E90202801A19
:107B6000401E7047D1E901021044CA68801A401EC5
:107B7000F7E70146D1E90220904205D24A68C86879
:107B800010448A68801A7047D1E90220801AFAE707
:107B90002DE9F04104460F46154600BF14B90020F8
:107BA000BDE8F08100BF00BF2046FFF7D1FFA8422B
:107BB00001D20020F4E700BFE1686068401AA842E3
:107BC00003D2E1686068401A00E028460646E26891
:107BD0002168881832463946FEF76AFEAA1BB91991
:107BE0002068FEF765FEE06828446168B0FBF1F2AA
:107BF00001FB1200E0600120D2E72DE9F0410446CC
:107C00000E46154600BF14B90020BDE8F08100BF44
:107C100000BF2046FFF784FF012801D10020F4E7D0
:107C200000BF00BF2046FFF7A4FFA84201D20020FA
:107C3000EBE700BFD4E90101401AA84203D2D4E91E
:107C40000101401A00E028460746A2682068811812
:107C50003A463046FEF72CFEEA1BF0192168FEF783
:107C600027FEA06828446168B0FBF1F201FB120016
:107C7000A0600120C9E770B504460D4600BF0CB9ED
:107C8000002070BD00BF00BF2046FFF752FF012853
:107C900001D10020F5E700BFE16820684554E068A5
:107CA000401C6168B0FBF1F201FB1200E0600120B2
:107CB000E7E710B503460C4600BF0BB9002010BD26
:107CC00000BF00BF1846FFF72BFF012801D100209D
:107CD000F5E700BF99681868405C20709868401C00
:107CE0005968B0FBF1F201FB120098600120E6E751
:107CF000F0B503460C46154600BF0BB104B10DB9F3
:107D00000020F0BD00BF9968002212E01868405CB6
:107D1000A65CB04205D1501C0246A84202D1521EB8
:107D20000AE00022481C5E68B0FBF6F706FB17006D
:107D30000146D8688842E9D100BF58680844801AD3
:107D40005E68B0FBF6F706FB1700DAE7F0B504460D
:107D50000D4600BF206800B10AB90020F0BD00BF89
:107D600000210EE068186668B0FBF6F706FB170006
:107D70002668365C12F8017BBE4201D00020EDE798
:107D8000491C9942EED30120E8E7000010B50446F3
:107D900006F002FA85480078F2281BD1207A617A31
:107DA00048402072607A217A48406072207A617A75
:107DB000484020722189606803F0D3F901280FD16F
:107DC00003F0DFF960B1F3207849087006F00CFA8F
:107DD000012010BD75480078F32801D10120F8E793
:107DE0000020724908701220F3E710B5044606F02F
:107DF000D3F9E078F12802D0F32809D104E0204635
:107E000003F0F1F8C0B210BD2046FFF7BFFFFAE75C
:107E10000E20F8E770B506460C46154606F0BCF98C
:107E200062480078F12809D12946204603F072F90A
:107E300010B1F2205D490870012070BD5B480078E8
:107E4000F22801D10120F8E70020584908702220CB
:107E5000F3E72DE9F04780460E461446FFF772FA25
:107E60008146D9F804A0D9F81070D9F8005098F8D4
:107E70000400022815D10B203070F0204B49087007
:107E800002204B490870B88820802868C4F8020096
:107E9000DAF80400C4F80600287AA0720120BDE8D0
:107EA000F08798F8040001281AD14249DAF8000056
:107EB000884201D11F20F2E70B20307001203C499D
:107EC0000870F02039490870B88820802868C4F804
:107ED0000200B868C4F80600287AA0720120DEE724
:107EE0000E20DCE770B504460D46164606F054F940
:107EF000E078F02802D0F2280CD105E0324629467D
:107F00002046FFF7A6FF70BD324629462046FFF700
:107F100081FFF8E70E20F6E710B5044606F03CF9BD
:107F200022480078F12808D1A278921ED1B2B4F884
:107F30000300621D03F0B3F810BD1C480078F2285E
:107F400001D10120F8E70020184908702220F3E74A
:107F500010B50446A078012801D00F2010BDE078AC
:107F6000492802DBE0785D2801DD0E20F6E703F00A
:107F70006BF9E17888420CD0E07803F02CF908B96D
:107F80001220EBE70C4B4FF448720021084602F038
:107F900063FC0120E2E770B506460C46154603F087
:107FA00053F928700120207070BD000024000020CB
:107FB00025000020558778AA55D5000810B58022E5
:107FC00023492448FFF796FD10BD1CB507226946DA
:107FD0002048FFF712FE58B1DDF803309DF802206B
:107FE0009DF801109DF8000000F0A6FB01201CBDCB
:107FF000FFF7E4FF0020FAE72DE9FC4105460C46B7
:1080000016461F4605EB8500134901EB40008079B9
:1080100018B9C72C16DDDD2C14DA8DF800508DF858
:1080200001408DF80260CDF80370072269460948C7
:10803000FFF7AEFDAFF26D03C8220021032002F06E
:108040000BFC02E0284603F0F8F9BDE8FC810000D3
:108050005413002044130020BC23002038B5A52071
:10806000009000BF4FF4105004466A460121FFF70C
:10807000A1FCC14890F8720670B140F27362002111
:10808000BD48FEF737FC00BF42F201400446BA4A41
:1080900040F27361FFF78EFC38BD10B500BF42F2AD
:1080A00001400446B44A40F27361FFF747FC00B94F
:1080B00010BD00F07AF9B04890F8720608B900F0E7
:1080C0005FF9AD4890F87206322803DDFFF7C6FF6E
:1080D00000F056F900BFEBE72DE9F04105460E46EA
:1080E00000241FE004EB4410A349085CC0B104EB7A
:1080F00044100844C07C1230C7B204EB44100A4656
:108100001044811C3A463046FEF7E0FB40B904EBD0
:10811000441099490844407828700120BDE8F08156
:10812000601CC4B2944890F87206A042DADC0020C9
:10813000F4E710B5034601221FE000210DE001EB3A
:1081400041108D4C205C30B101EB4110204440784F
:10815000904200D106E0481CC1B2874890F87206F0
:108160008842ECDC00BF844890F87206884202D155
:108170001A70012010BD501CC2B2FE2ADDDB0020A7
:10818000F8E7024600210EE001EB41107A4B185C43
:1081900038B101EB411018444078904201D10846B3
:1081A0007047481CC1B2744890F872068842EBDCF4
:1081B000FF20F5E7704890F87206322801DB0120B5
:1081C00070470020FCE72DE9F04104460D461646B5
:1081D00004EB441068490844C07C1230C7B204EB79
:1081E00044100A461044811C3A463046FEF760FBB4
:1081F0002F700120BDE8F0812DE9F04704460E46BE
:1082000017461D46A5F10209322C3DDC99F81300F2
:10821000123000F0FF0804EB4411574A1144881C47
:1082200042462946FEF744FB012004EB4411524A22
:10823000505404EB441011460844467000BF42F20B
:108240000140212101FB040A04EB441011464218AD
:1082500021215046FFF7AEFB9FB1474890F87206C8
:10826000401C454981F8720600BF42F20141434873
:10827000414A801A01EB000A404A01215046FFF7AB
:1082800099FB0120BDE8F0870020FBE770B50446AC
:10829000394890F87206401EA0423AD0364A92F809
:1082A0007226521E02EB4212334BD11804EB4412D9
:1082B000D0182122FEF7FCFA00BF42F20140212132
:1082C00001FB040504EB44102B49421821212846E8
:1082D000FFF770FB284991F87216491E01EB411116
:1082E000254A881821220021FEF704FB00BF42F234
:1082F0000141214890F87206401E212202FB001520
:1083000004EB44101C49421821212846FFF752FB78
:1083100015E004EB4411184A881821220021FEF7C9
:10832000E9FA00BF42F20140212101FB040504EB00
:1083300044101149421821212846FFF73BFB0E4803
:1083400090F87206002814DD0B4890F87206401E63
:10835000094981F8720600BF42F201410748064A06
:10836000801A0D18054A01212846FFF723FB01203A
:1083700070BD0020FCE70000D4130020461A002046
:1083800010B5A54890F85E0170B140F25F1200216F
:10839000A148FEF7AFFA00BF42F6013004469E4AFC
:1083A00040F25F11FFF706FB10BD10B500BF42F6AB
:1083B00001300446984A40F25F11FFF7BFFA00B956
:1083C00010BD954890F85E01322801DDFFF7D8FF17
:1083D00000BFF5E7024600210EE0C1EBC1008E4B65
:1083E000185C38B1C1EBC10018444078904201D10B
:1083F00008467047481CC1B2874890F85E01884221
:10840000EBDCFF20F5E770B50446834890F85E0189
:10841000401EA0423AD0804A92F85E21521EC2EB22
:10842000C2027D4BD118C4EBC402D0180722FEF75C
:108430003FFA00BF42F60130072101FB0405C4EBFF
:10844000C4007549421807212846FFF7B3FA72495C
:1084500091F85E11491EC1EBC1016F4A88180722CD
:108460000021FEF747FA00BF42F601316A4890F852
:108470005E01401E072202FB0015C4EBC4006649E2
:10848000421807212846FFF795FA15E0C4EBC4010E
:10849000614A881807220021FEF72CFA00BF42F635
:1084A0000130072101FB0405C4EBC4005A494218FE
:1084B00007212846FFF77EFA574890F85E0100280A
:1084C00014DD554890F85E01401E534981F85E0165
:1084D00000BF42F6013151484F4A801A0D184F4AE9
:1084E00001212846FFF766FA012070BD0020FCE755
:1084F0002DE9F04104460D4616461F46322C38DC65
:10850000C4EBC401444A1144881C05223946FEF7D5
:10851000CFF90120C4EBC4013F4A5054C4EBC4005E
:1085200011460844457000BF42F60130072101FBA7
:108530000408C4EBC4001146421807214046FFF767
:1085400039FA9EB1344890F85E01401C324981F8F6
:108550005E0100BF42F6013130482F4A801A01EB1C
:1085600000082E4A01214046FFF724FA0120BDE809
:10857000F0810020FBE770B504460D461646C4EBBB
:10858000C400254A1044811C05223046FEF790F9AC
:1085900005202870012070BDFEB506460C4600205F
:1085A000009001902546E87CC21C05F11101C81C11
:1085B000FEF7A9F96A4602A93046FFF7DCFFE97C1D
:1085C000C91C05F11402881805226946FEF770F9E6
:1085D000002068749120A874E87CC01CE874012015
:1085E000FEBD2DE9F04104460D4616461F46FF2C00
:1085F00003D1094991F85E1100E0214608463B4647
:1086000032462946FFF774FFBDE8F08110B50446F5
:108610002046FFF7F8FE10BD471A0020A51B0020DA
:1086200010B5FFF73AFD10BD10B5FFF717FD10BDEF
:1086300010B50446092C3AD2DFE804F039050B11D5
:10864000171D23293100994201DA012010BD0020B5
:10865000FCE7994201DC0120F8E70020F6E79942A7
:1086600001DD0120F2E70020F0E7994201DB012063
:10867000ECE70020EAE7994201D10120E6E700207B
:10868000E4E7994201D00120E0E70020DEE79942CB
:1086900003DC9A4201DB0120D8E70020D6E79942AB
:1086A00001DC9A4201DA0120D0E70020CEE7002069
:1086B000CCE70146092916D2DFE801F015090F0DB4
:1086C0000B0507111300062070470520FCE7042066
:1086D000FAE70120F8E70220F6E70320F4E7082094
:1086E000F2E70720F0E70020EEE70346092B1ED251
:1086F000DFE803F01D05060A0B1D1D0F160000BF65
:108700000868401C086014E000BF0868401E08604C
:108710000FE00868401C08601068401E106008E008
:108720000868401C08601068401E106001E00020CE
:10873000704700BF0120FBE72DE9F04F8DB00646E2
:108740000F4690469A460024C6E004EB4410674961
:10875000085C01287ED1B8F1010F7CD14FF00009EF
:1087600004EB44100844007A010604EB44105F4A0D
:108770001044C07901EB004104EB441010448079AF
:1087800001EB002004EB44111144497900EB01098D
:1087900004EB4410114608448078B0426AD104EBDF
:1087A00044100844C078B842F8D104EB4411114495
:1087B0000879534600224946FFF73AFF002859D06E
:1087C00004EB441049490844007B010604EB4410C3
:1087D000464A1044C07A01EB004104EB44101044B7
:1087E000807A01EB002004EB44111144497A00EB3C
:1087F0000109B9F1000F0FD104EB4413944663440F
:108800005A1D04EB44136344D97804EB44136344C6
:10881000987802F05EFE5DE004EB4411334A1144A7
:108820004878FFF7D7FD8346FF2824D004EB441097
:108830002E4A8118212203A8FEF73AF803A95846C8
:10884000FFF7AAFE03AD05F11400E97C491DC9B28A
:10885000AA7C01E03DE03BE0CDE90021029095F8E3
:108860000EC0E97B0CEB01218AB26B7C687B494628
:1088700000F066FB2BE004EB44101C490844143064
:1088800004EB4411194A1144C97C04EB4412174B00
:108890001A44927CCDE90021029004EB44119C46DD
:1088A000614491F80EC004EB44119E467144C97BAB
:1088B0000CEB01218AB204EB44119C4661444B7CD1
:1088C00004EB44116144487B494600F039FB00E069
:1088D00000BF00BF601CC4B2044890F87206A042FA
:1088E0003FF733AF01200DB0BDE8F08FD413002067
:1088F00010B50446012C02D1FFF75CFC10BDFF202F
:10890000FCE770B504460D46012C03D12846FFF75D
:1089100038FC70BDFF20FCE730B503460C46012B48
:1089200018D100210BE001EB4110FB4D285C20B178
:1089300001EB4110284440785054481CC1B2F6481D
:1089400090F872068842EEDCF34890F872062070C8
:10895000012030BDFF20FCE72DE9F04104460D4623
:1089600016461F46012C06D13A4631462846FFF7E7
:108970002AFCBDE8F081FF20FBE72DE9F041044629
:108980000D4616461F46DDF81880012C12D1FF2D2A
:1089900003D1E14991F8721600E0294608464346A2
:1089A0003A463146FFF728FC10B10120BDE8F081BE
:1089B0000020FBE7FF20F9E770B50446012C10D139
:1089C00040F273620021D448FDF794FF00BF42F2E9
:1089D00001400546D04A40F27361FEF7EBFF0120EB
:1089E00070BDFF20FCE770B505460C46012D07D190
:1089F000322C03DA2046FFF749FC70BD0020FCE76B
:108A0000FF20FAE770B504460D461646012C04D146
:108A100031462846FFF760FB70BDFF20FCE770B5CC
:108A200004460D46012C03D12846FFF782FB70BD9A
:108A3000FF20FCE72DE9FC4106460C4600272246B4
:108A400001A93046FFF7DEFFF0B93046FFF750FFCF
:108A5000012802D11320BDE8FC8101A93046FFF7AF
:108A6000DEFF012802D10127FF2501E01420F2E7F3
:108A70003B4600949DF8042029463046FFF77DFFD1
:108A800001280CD01020E6E72846FFF7A3FC80461B
:108A9000FF2803D04046FFF7B9FDDCE700BFA41E66
:108AA0009DF8040020700120D5E72DE9F84F064617
:108AB0000C4615464FF00008C14621463046FFF7E8
:108AC00020FF0746FF2801D14FF001094B462246FF
:108AD000394630460095FFF750FF80462046FFF7A5
:108AE00079FC8246FF2804D05046FFF78FFDBDE891
:108AF000F88F4046FBE72DE9FE4381460E461446BB
:108B00001F4600200090019031464846FFF7F9FECD
:108B10008046FF2823D03B46224641464846FFF781
:108B20001BFFBD1E3046FFF755FC8046FF2813D0C3
:108B30000DF1010202A94046FFF71DFD2078801DBE
:108B4000207001208DF80000EA7C05F11401501816
:108B500006226946FDF7ACFE0120BDE8FE83002039
:108B6000FBE72DE9F04107460E4614461D46FF2E51
:108B700007D12A4621463846FFF7CEFE0120BDE840
:108B8000F08131463846FFF7BCFE2870FF2802D03E
:108B900001202070F3E70020F1E770B505460C4690
:108BA000FF2C05D1FFF7ECFB2846FFF705FF70BD52
:108BB00021462846FFF7A5FE0646FF2803D031468A
:108BC0002846FFF710FF2046FFF704FC0646FF2863
:108BD00003D03046FFF71AFDE9E70120E7E72DE96A
:108BE000FF4180460C460027002001900290A61EFF
:108BF000F17C06F11400405C012811D1F07C401C8E
:108C000006F114028118052201A8FDF751FE012189
:108C100001A802F029F818B91D2004B0BDE8F081C0
:108C2000224603A94046FFF7EDFEE8B94046FFF7AC
:108C30005FFE012801D11320EFE703A94046FFF7AB
:108C4000EEFE012802D10127FF2501E01420E4E710
:108C50003B4600949DF80C2029464046FFF78DFEC8
:108C6000012809D01020D8E79DF80C00FFF7B2FBCF
:108C70000546FF2800D1012701AB3A469DF80C10AC
:108C80002846FFF7AEFCA41E9DF80C0020700120C2
:108C9000C3E72DE9FE4F80460D4616464FF000090A
:108CA0000027002001900290B41EE17C04F1140022
:108CB000405C012810D1E07C401C04F114028118B2
:108CC000052201A8FDF7F4FD012101A801F0CCFF68
:108CD00010B91D20BDE8FE8F29464046FFF711FE62
:108CE0008246FF2800D101273B462A46514640468E
:108CF0000096FFF742FE81462846FFF76BFB82464F
:108D0000FF2800D1012701AB3A4629465046FFF71C
:108D100068FC4846DEE70000D41300202DE9F0414E
:108D2000054600240026354890F8720610B9012047
:108D3000BDE8F08127E004EB441030490844807816
:108D4000A8421ED101260A4692F87226521E02EB54
:108D500042120B46D11804EB4412D0182122FDF721
:108D6000A7FD264890F87206401E244981F8720635
:108D700004EB44100A46104441780020FFF70DFF31
:108D800001E0601CC4B21D4890F87206A042D2DC1B
:108D900046B100BF42F201400746184A40F27361F3
:108DA000FEF708FE0120C3E770B505460E46002415
:108DB00000BF1CE004EB441010490844C078A842EE
:108DC00012D104EB44100844D0F80500B0420BD196
:108DD0002046FFF75BFA04EB4410084A1044417840
:108DE0000020FFF7DAFE02E0601CC4B200BF0348B7
:108DF00090F87206A042DDDC012070BDD413002083
:108E000010B56049012002F0E1FC10BD10B5044628
:108E1000012020705B4809380068C4F801005948F7
:108E200009384168E160D4F80600564909394968B3
:108E3000884202D0607901280CDD207D00F1150206
:108E400021465148FEF7ABF820B900220321022049
:108E5000FEF728FED4F806004A49093949688842D5
:108E60000CD0207D00F1150221464848FEF797F806
:108E700020B9002202210846FEF714FE10BDF0B50D
:108E8000BFB005460E4617466C4610222946601CA8
:108E9000FDF70EFD3B480938407A401CC1B2394805
:108EA0000938417221740422314604F11100FDF7A2
:108EB000FFFCF27839460DF11500FDF7F9FC20466C
:108EC000FFF7A4FF3FB0F0BDF0B585B004460D46F6
:108ED00016461F4601208DF808004FF08830CDF867
:108EE00009000020ADF80D008DF800008DF801405C
:108EF0008DF802508DF803603A46694601A8FFF7E5
:108F0000BEFF05B0F0BDF0B591B005460E46144663
:108F10001F4601208DF804008DF805508DF806607D
:108F20008DF807402246394602A8FDF7C1FC201DF6
:108F3000C2B201AB00210846FFF7C6FF11B0F0BD79
:108F40002DE9F04786B004460D4616461F46DDE97A
:108F50000F9ADDF838808DF80C40CDF80D50ADF843
:108F6000116004208DF804008DF806808DF80570DE
:108F70008DF80790524601A902A8FFF780FF06B0BE
:108F8000BDE8F0878D1F0020C0010020D001002027
:108F90002DE9F04106460F46042506E0681E305CC8
:108FA000FF2800D003E0681EC5B2002DF6DC00BF2C
:108FB0000024601E38601EE0305DFF2819D005F0E7
:108FC0005DF9804612E0A8F10100C0B2804600EBD6
:108FD0008000FB4901EB4000005D315D884205D017
:108FE000012101FA08F1386888433860B8F1000FB0
:108FF000E9D1601CC4B2AC42DEDB2846BDE8F0819A
:10900000024600210CE0EE480A30405C535C984276
:1090100004D0505CFF2801D000207047481CC1B22A
:109020000429F0DB0120F8E730B50546E548807FEC
:10903000012808D12879022805DB681DFFF7E0FF29
:1090400008B1012030BD002424E0DE480A3000EBE6
:109050008400006830B1DB480A3000EB840000680F
:10906000401C00B914E0D5F80B10D6480A3000EBCC
:1090700084000068814208D0D5F80510D1480A3034
:1090800000EB84000068814201D10120DAE700BFD3
:10909000601CC4B2052CD8DB0020D3E730B50246F3
:1090A000002138E0C84800EB01100068D2F80B40FE
:1090B000A0422ED100230BE0C34800EB0110083082
:1090C000C05CD47BA04201D1002030BD581CC3B28B
:1090D000052BF1DBBC4800EB0110407B401CC0B20B
:1090E000B94C04EB01146073052490FBF4F504FB08
:1090F0001500B54C04EB01146073D47BB24800EB4F
:1091000001100830B04D05EB01156D7B4455012071
:10911000DBE7481CC1B21429C4DBAC480078401C12
:10912000C0B2AA4C2070142490FBF4F504FB150087
:10913000A64C2070D07BA44CA44D2D7804EB0514D4
:109140002072D2F80B40A048A04D2D7800EB0510FE
:1091500004600120B9E72DE9F04FA5B0834616461B
:109160001C462E9F306897490968884208D03068AD
:109170009749884204D093480068401C00286FD16A
:109180003046FFF78BFF18B9082025B0BDE8F08FF7
:109190003046FFF749FF38B1E07800F115020BF1D6
:1091A00006018C48FDF7FBFE307901280BD1D6F87B
:1091B000050084494968884201D00620E5E700207F
:1091C0008549086062E23079052807D1D6F80500A4
:1091D00020B9D6F80B008049086057E2FEF7B2F8D4
:1091E00023902398D0F810900020229000BF7B4855
:1091F000806840F00100794988607948006808601B
:109200007748001D006808607548083000680860ED
:1092100074480068086073480C30006808600846AD
:1092200000682290D6F80B006B49086024A9701DD5
:10923000FFF7AEFE82462299249888402490229817
:109240008244249808B907209FE7307902283BD14F
:10925000607830B9A078912803D194F8038011E0A8
:109260001AE2E2783946F81CFDF74DFB0322611C37
:109270003846FDF71DFBE078C01C00F0FF08002019
:109280006070A0700020E070012518E00120A84067
:109290002499084088B1727A0AF0FF01284602F04A
:1092A0008FFC50B1E178C81942463946FDF700FB02
:1092B000E0783D54E0784044E070681CC5B204F0AA
:1092C000DDFFA842E2DCDCE1307903285FD1002039
:1092D00001908DF8080091208DF8090000208DF88C
:1092E0000A006070A070E07001253AE00120A840FB
:1092F0002499084008B3E078C319727A0AF0FF0194
:10930000284603F0ECF9012818D1E078385CA0B1C8
:10931000E078385C0190E2783A44511C9DF80A30BC
:109320000DF10B029818019AFDF7C2FA9DF80A1088
:1093300001980844C0B28DF80A0010E0E078385C6B
:1093400068B1E07817F80080E2783A44511CE2787E
:10935000D0194246FDF7D7FAE0784044E070681C27
:10936000C5B204F08BFFA842C0DC9DF80A0068B1CA
:109370009DF80A10CA1CE178C81902A9FDF798FAED
:10938000E1789DF80A00C01C0844E07079E130796A
:10939000042868D1607838BBE2783946F81CFDF7BC
:1093A000B2FA0322611C3846FDF782FAE078C01C4D
:1093B00000F0FF0800206070A070E07001252DE033
:1093C000BC230020841F0020A81B002020000020B8
:1093D00042455354D00100201C00002000300240C0
:1093E000E8F7FF1F340400081DE00120A84024997D
:1093F000084088B1B6F80900B9F8041089B288426B
:109400000AD1E178C81942463946FDF751FAE078A9
:109410003D54E0784044E070681CC5B204F02EFF73
:10942000A842E2DC2DE104F029FF401E6178884269
:1094300001DA0E20A9E661780120884024990840CD
:1094400078B1B6F80900B9F8041089B288429DD005
:10945000B9F8040080B21D2803D1B6F809001E280F
:1094600094D00E2091E63079062834D1E27839463E
:10947000F81CFDF748FA0322611C3846FDF718FA7C
:10948000E078C01C00F0FF0800206070A070E07061
:1094900001251BE00120A84024990840A0B1B6F89E
:1094A000090005EB85019E4A02EB4101898888424B
:1094B0000AD1E178C81942463946FDF7F9F9E07852
:1094C0003D54E0784044E070681CC5B204F0D6FE1C
:1094D000A842DFDCD5E03079072834D1E27839467C
:1094E000F81CFDF710FA0322611C3846FDF7E0F97D
:1094F000E078C01C00F0FF0800206070A070E070F1
:1095000001251BE00120A84024990840A0B1B6F82D
:10951000090005EB8501824A02EB4101C9798842C5
:109520000AD1E178C81942463946FDF7C1F9E07819
:109530003D54E0784044E070681CC5B204F09EFEE3
:10954000A842DFDC9DE0307914285CD16078A8BBAC
:10955000E2783946F81CFDF7D6F90322611C38463B
:10956000FDF7A6F9E078C01C00F0FF08002060704D
:10957000A070E07001251CE005EB8500684951F8FA
:109580001000D6F80510884211D1B6F80900B9F8D4
:10959000041089B288420AD1E178C8194246394696
:1095A000FDF786F9E0783D54E0784044E070681CAF
:1095B000C5B204F063FEA842DEDC62E0FFE704F01F
:1095C0005DFE401E6178884201DA0E20DDE560789C
:1095D00000EB8000524951F81000D6F8051088427F
:1095E0000FD1B6F80900B9F8041089B2884248D002
:1095F000B9F8040080B21D2803D1B6F809001E286E
:109600003FD00E20C1E53079162838D1E2783946AE
:10961000F81CFDF778F90322611C3846FDF748F97C
:10962000E078C01C00F0FF0800206070A070E070BF
:1096300001251FE005EB8500394951F81000D6F8E7
:109640000510884214D1B6F8090005EB8501344AAB
:1096500002EB4101898888420AD1E178C819424663
:109660003946FDF725F9E0783D54E0784044E07054
:10967000681CC5B204F002FEA842DBDC01E0052054
:1096800083E5E07808B90D207FE500BFD6F80B0030
:10969000C6F80500012078E5042076E50146032997
:1096A00001D10A20704700BF00BF0020FAE770B563
:1096B00004460D462078FFF7F1FFA84201D00020B4
:1096C00070BD0120FCE770B58EB004460E4601ADBA
:1096D000D4F801001349096888421FD13146204659
:1096E000FFF7E5FF012819D1D4F80500C5F80B00F4
:1096F000607AE873012028712846FFF7CFFC10B983
:1097000008200EB070BD2846FFF78EFC20B132460F
:1097100021460548FDF775FB0120F2E71220F0E72E
:10972000BC230020841F0020100C0020F8B5044644
:10973000002705F009FC0746A0783841A07069466B
:10974000201DFFF725FC0646F019C6B2A0780328B5
:1097500001DA0F20F8BD04F091FDE178491C39448D
:10976000C9B2884205DB207A401C3844C0B2402888
:1097700001DD0E20EEE7A07A012834D1E07828B18F
:10978000E078FF2802D0207AFF2801D10E20E1E7FF
:10979000E178012088400099084010B3A07809388A
:1097A000E0726078A0280BD1E07A202808DA227ACB
:1097B000E07804F10B03314602F09AFDC0B2C9E72C
:1097C0006078AE280BD1E07A522808DA227AE07865
:1097D00004F10B03314602F03EFEC0B2BAE70F209F
:1097E000B8E70720B6E7A07A48BBE078FF2819D190
:1097F0002EB9207AFF2802D101F0C4FE28E001250D
:109800000BE00120A8400099084020B1227A31469F
:10981000284602F020FC681CC5B204F02FFDA842C7
:10982000EFDC15E0E178012088400099084068B13C
:1098300036B9207AFF2803D1E07802F022FA07E057
:10984000227AE078314602F006FC01E0072081E749
:1098500001207FE7F8B504460E4615466946201DEF
:10986000FFF796FB0746A078032801DA0F20F8BD22
:10987000E07838B104F002FDE178884202DD208909
:10988000402801DD0E20F2E7E178012088400099B0
:10989000084080B1227AE0782B46394602F01FFF5B
:1098A0002878401C3070287810B10120287006E01C
:1098B0000020287003E0002030700720D7E7012047
:1098C000D5E7F8B50446002705F03EFB0746A0782B
:1098D0003844A0706946201DFFF75AFB064646EA49
:1098E0000700C6B2A078032801DA0F20F8BD04F003
:1098F000C5FCE178491C3944C9B2884205DB207AAD
:10990000401C3844C0B2402801DD0E20EEE7A07AAA
:10991000012817D1E07828B1E078FF2802D0207A1A
:10992000FF2801D10E20E1E7E1780120884000996D
:10993000084028B1227AE078314602F0AEF836E0ED
:109940000720D3E7A07A48BBE078FF2819D12EB9C9
:10995000207AFF2802D101F045FE28E001250BE026
:109960000120A8400099084020B1227A31462846BB
:1099700001F0C7FF681CC5B204F080FCA842EFDC10
:1099800015E0E178012088400099084068B136B9B7
:10999000207AFF2803D1E07801F009FE07E0227A5F
:1099A000E078314601F0ADFF01E007209EE701209D
:1099B0009CE7F8B504460D4616466946201DFFF79C
:1099C000E7FA0746A078032801DA0F20F8BDE0780F
:1099D00038B104F053FCE178884202DD207A402857
:1099E00001DD0E20F2E7E17801208840009908406F
:1099F00040B101202870227AE078394602F0E0F880
:109A0000307003E0002028700720DFE70120DDE749
:109A100010B5C4B02948447ABB208DF810002848FE
:109A200000788DF8110026480078401C2449087001
:109A30002248007A0978884203DAFF208DF8100066
:109A4000022404A8B521CDE9001402901B4801238B
:109A5000002201681846FFF773FA44B010BD10B534
:109A600000201749087015484289007A811CAFF21E
:109A70005F03012000F0F0FE10BD10B5002003F0E0
:109A800029FC10BD3EB5002503F02BFC0546002443
:109A900010E00A48007A401CC0B2B621CDE90105A9
:109AA000009106480123002201681846FFF748FA92
:109AB000601CC4B2022CECDB3EBD0000E81C0020A0
:109AC0002200002010B504466248007808B1122038
:109AD00010BD01205F490870D4F803005E4908609A
:109AE000072000594860E07A0872217B5A48417289
:109AF0000D20015B58484181584B4FF47A72002188
:109B0000084600F0A9FE0120E2E7534800687047CC
:109B10005148007A704703460D2008704E4800688F
:109B200010604D48406850604B48007A10724A48B7
:109B3000407A5072484840895081464800781073F6
:109B40000120704770B5044600254248007801287E
:109B500001D0122070BD02203E490870D4F80300E5
:109B60003D490860072000594860E07A0872217B6F
:109B7000394841720D20015B37484181012003F0D3
:109B8000A9FB374B41F288320021084600F064FE01
:109B900003F0A7FB05463048007A421C0021284606
:109BA000FCF7A8FE0120D5E703460D2008702A48DF
:109BB000006810602848406850602748007A10729A
:109BC0002548407A507224484089508121480078C5
:109BD00010730120704710B50446214B41F28832C2
:109BE0000021084600F038FEE078FF2812D119481D
:109BF000007802280ED11A4800F0A0FEFFF73DFFC2
:109C0000184B4FF47A720021084600F025FE002020
:109C100010490870012010BD70B506460C46154667
:109C20000120207003F05FFB2870012070BD10B58B
:109C300004460020074908700B4800F07FFE012011
:109C400010BD034601200870024800781070012002
:109C50007047000021000020E81C00205F9A0008E7
:109C60007B9A0008859A0008119A000828207047FE
:109C700010B5002001F073FB10BD10B5044601F0D3
:109C80005CFD02F0BBFDFEF7CBFC01F0E8FFFEF748
:109C900095F9FA4805F080F8002207210220FDF727
:109CA00001FFAFF233034FF47A720021084600F04F
:109CB000D3FD10BD2DE9F05F83460C461546002606
:109CC000FDF740FB0746D7F810A0D7F80080D7F87B
:109CD00004900020207042F2D870217868522078D9
:109CE000801C20702178DAF8080068502078001D68
:109CF0002070E349D9F80000884201D1C01701E083
:109D0000D9F80400217868502078001D207021784F
:109D1000D8F8000068502078001D207008F1240653
:109D200005E031782278501C2070A954761C3078D8
:109D30005A2802DC30783028F3DA0120BDE8F09FA1
:109D40002DE9F04105460C461646FDF7FBFA804624
:109D5000D8F81070A87850B1B5F803107868884228
:109D600005D0B5F803004FF6FF71884210D10020EE
:109D70002070B888217870522078801C207021785B
:109D8000B86870502078001D20700120BDE8F08177
:109D90001220FBE710B50446A078042801DCA07867
:109DA00008B90F2010BDD4F80300B449091F08609A
:109DB000042001F00BFD08B91020F3E70120F1E7C2
:109DC0000346AE48001F00681060042008700120A0
:109DD000704770B504466568E67815B1B5F1FF3F88
:109DE00001D10E2070BD3146284601F027FDF9E76C
:109DF00070B506460C46154601F05AFD2860042051
:109E00002070012070BD03469C48001F4068106010
:109E1000042008700120704710B50446E07805283A
:109E200001DCE07808B90F2010BDE0789349091FE4
:109E300008720831012001F0C9FC08B91020F3E7CD
:109E40000120F1E703468D48001F007A10700120C1
:109E50000870704770B50546A878192806DCA87800
:109E6000052190FBF1F201FB120008B10F2070BD3B
:109E7000A878052190FBF1F0C6B200240EE004EBB7
:109E80008401E81C405C28B104EB8401E81C405CC0
:109E9000052801DD0E20EAE7601CC4B2B442EEDB07
:109EA000002410E004EB8400401CE91C0A5804EB79
:109EB0008401E81C405C401E7049891D01EB800054
:109EC0000260601CC4B2B442ECDB6C49891D1420F2
:109ED00001F07CFC08B91020C9E70120C7E7F0B504
:109EE00003460C460025D878FF2827D10020207093
:109EF000002120E06148801D00EB81000068C0B1B6
:109F00005E48801D00EB81000068401C88B1481C41
:109F100005EB850690555948801D00EB81000668C9
:109F200005EB8507501CC6512078401D2070681C29
:109F3000C5B2481CC1B20529DCDB13E0D87810B1EA
:109F4000D878052801DD0F20F0BDD8781070D878BA
:109F5000401E4A4EB61D06EB80000068C2F80100A4
:109F6000052020700120EFE710B50446E07808B125
:109F7000012000E000204149091F88771E3101209F
:109F800001F024FC08B9102010BD0120FCE70346B5
:109F90003A48001F807F012800D100E000201070A7
:109FA00001200870704770B50446A078052801DCD0
:109FB000A07808B90F2070BDE078C0B9012511E084
:109FC00005EB85012F4A606842F8110005EB85001A
:109FD00002EB4001042001F019FC08B91020EAE767
:109FE000681CC5B204F04AF9A842E9DC18E004F0A4
:109FF00045F9E178884201DC0E20DCE7E17801EBED
:10A000008101204A606842F81100E07800EB80008E
:10A0100002EB4001042001F0F9FB08B91020CAE767
:10A020000120C8E72DE9F04104460D461646A07808
:10A03000032801DCA07810B90F20BDE8F081E0789A
:10A04000A0B90127002028700BE007EB87000D491D
:10A0500051F81000297870502878001D2870781C5D
:10A06000C7B204F00BF9B842EFDC16E004F006F9D1
:10A07000E178884208DC0E20DFE70000881F00201E
:10A08000558778AABC230020E07800EB8000F749D0
:10A0900051F810003060042028700120CDE770B521
:10A0A0000446A078032801DCA07808B90F2070BD11
:10A0B000E078D0B9012513E0A08805EB8501EB4AD3
:10A0C00002EB4101888005EB850002EB4000011D99
:10A0D000022001F09BFB08B91020E8E7681CC5B21C
:10A0E00004F0CCF8A842E7DC1AE004F0C7F8E17805
:10A0F000884201DC0E20DAE7A088E17801EB8101DB
:10A10000DA4A02EB41018880E07800EB800002EB44
:10A110004000011D022001F079FB08B91020C6E7BC
:10A120000120C4E72DE9F04104460D461646A0780B
:10A13000032801DCA07810B90F20BDE8F081E07899
:10A14000A8B90127002028700CE007EB8700C74959
:10A1500001EB40008088297870522878801C287094
:10A16000781CC7B204F08AF8B842EEDC10E004F0C4
:10A1700085F8E178884201DC0E20DEE7E07800EB2C
:10A180008000BA4901EB40008088308002202870AE
:10A190000120D2E770B50446A078022801DCA0783F
:10A1A00008B90F2070BDE078D0B9012513E02079FF
:10A1B00005EB8501AD4A02EB4101C87105EB850055
:10A1C00002EB4000C11D012001F020FB08B9102066
:10A1D000E8E7681CC5B204F051F8A842E7DC1AE0D1
:10A1E00004F04CF8E178884201DC0E20DAE72079AF
:10A1F000E17801EB81019D4A02EB4101C871E078F1
:10A2000000EB800002EB4000C11D012001F0FEFACE
:10A2100008B91020C6E70120C4E72DE9F041044643
:10A220000D461646A078022801DCA07810B90F2050
:10A23000BDE8F081E078A8B90127002028700CE083
:10A2400007EB8700894901EB4000C07929787054F9
:10A250002878401C2870781CC7B204F00FF8B84268
:10A26000EEDC10E004F00AF8E178884201DC0E2010
:10A27000DEE7E07800EB80007C4901EB4000C0792C
:10A280003070012028700120D2E770B50446A07814
:10A29000032801DCA07808B90F2070BDE07808BB66
:10A2A00001251AE0207905EB8501704A02EB410196
:10A2B0000872607905EB850102EB4101487205EBFC
:10A2C000850002EB400000F10801022001F09EFA37
:10A2D00008B91020E1E7681CC5B203F0CFFFA8421F
:10A2E000E0DC22E003F0CAFFE178884201DC0E20C6
:10A2F000D3E72079E17801EB81015C4A02EB41016F
:10A3000008726079E17801EB810102EB410148724A
:10A31000E07800EB800002EB400000F10801022031
:10A3200001F074FA08B91020B7E70120B5E72DE96C
:10A33000F04104460D461646A078032802DD0F20A2
:10A34000BDE8F081E07808B1A078F0B901270020DD
:10A35000287015E007EB8700444901EB4000007AC4
:10A360002978705407EB8700404901EB4000417A9F
:10A370002878401C31542878801C2870781CC7B27B
:10A3800003F07CFFB842E5DC17E003F077FFE178EB
:10A39000884201DC0E20D3E7E07800EB80003349EF
:10A3A00001EB4000007A3070E07800EB800001EBB8
:10A3B0004000407A7070022028700120C0E770B51C
:10A3C0000446A078052801DCA07808B90F2070BDEC
:10A3D000E078D0B9012513E0207905EB8501234A07
:10A3E00002EB4101887105EB850002EB4000811D05
:10A3F000012001F00BFA08B91020E8E7681CC5B28B
:10A4000003F03CFFA842E7DC1AE003F037FFE178F5
:10A41000884201DC0E20DAE72079E17801EB810146
:10A42000124A02EB41018871E07800EB800002EBF8
:10A430004000811D012001F0E9F908B91020C6E7AC
:10A440000120C4E72DE9F04104460D461646A078E8
:10A45000032802DD0F20BDE8F081E07808B1A07884
:10A46000C0B90127002028700FE00000BC230020A5
:10A4700007EB8700B04901EB4000807929787054E0
:10A480002878401C2870781CC7B203F0F7FEB84249
:10A49000EEDC10E003F0F2FEE178884201DC0E20F1
:10A4A000D9E7E07800EB8000A34901EB4000807918
:10A4B0003070012028700120CDE72DE9F0410446DD
:10A4C0000D461746E178207901EB002086B26079CD
:10A4D000822802DD0E20BDE8F081B6F5004F01DBD9
:10A4E0001120F8E760793044B0F5004F02DD70428A
:10A4F000287001E06079287029783A463046FDF7E7
:10A500001DFA08B91020E6E70120E4E710B504467B
:10A51000A07810B901F00AF908E0A078052805D163
:10A52000E1788800221D0421FDF744FA012010BDC6
:10A5300070B506460C4615462946204601F03BF903
:10A54000012070BD10B50446A078012801DD0F2060
:10A5500010BDA078012805D1E07818B9022001F0DB
:10A56000CAF81CE0A07818B9012001F0C4F816E080
:10A5700003F084FEE17888420FDDE07801F05EF8B8
:10A58000E07801F03CF8E07801F011F8E07801F0B3
:10A5900078FBE078FEF7C2FB01E00E20D8E701204F
:10A5A000D6E770B50446D4F80360A078042810D12B
:10A5B00003F036FD4FF47A717143B0FBF1F201FB09
:10A5C00012055E4B2A460021084600F045F901209D
:10A5D00070BD0F20FCE770B50446A07808B90F20C5
:10A5E00070BDE078022804D003280ED005281FD1C2
:10A5F00014E02079611DFEF71DFA0546012D02D1F8
:10A60000A0700220ECE72846EAE761792079FEF79E
:10A61000C4FA012800D1E3E71520E1E76179207948
:10A62000A21DFEF742FA012800D1D9E71620D7E78C
:10A6300000BF00BF0E20D3E770B504460D46164696
:10A64000E078012802D0042814D109E0617920794A
:10A6500033462A46FEF74FFA012800D170BD0AE0C2
:10A660006179207933462A46FEF77BFA08B101204A
:10A67000F4E700E000BF00BF1520EFE770B5044627
:10A68000A07808B90F2070BDE078022804D0032814
:10A690000ED005281FD114E02079611DFEF79FFA26
:10A6A0000546012D02D1A0700220ECE72846EAE71A
:10A6B00061792079FEF771FA012800D1E3E71520CE
:10A6C000E1E761792079A21DFEF7E3FA012800D1C4
:10A6D000D9E71620D7E700BF00BF0E20D3E710B59B
:10A6E0000446A07808B90F2010BDE07818B9012001
:10A6F000FEF762F905E0E078FEF710FB08B91720D5
:10A70000F2E70120F0E77CB506460D46144600202E
:10A710000190FF200090694601A8FCF750F801283D
:10A7200008D1019820609DF8000020710520287054
:10A7300001207CBD1220FCE7BC23002023B50008CB
:10A7400010B5032000F00BFE1248FCF7A9FA10BD6B
:10A7500010B5044610480068B0F15A3F01D01220ED
:10A7600010BD0E48D0F808010A4988420BD10C48A8
:10A77000FCF796FAAFF237034FF4966200210846D1
:10A7800000F06AF804E00348FCF78AFA02F024FEBD
:10A790000120E5E73BE1000860010020F00A00200D
:10A7A000F7DB00080020C9490860704730B5034650
:10A7B0000C4619460AE00846491CC44D2D1D05EB00
:10A7C0000010C068904201D1C8B230BDA142F2D39E
:10A7D0000020FAE77FB50546BC4A1288BB4B5B8870
:10A7E000D118BA4A10882A46FFF7E0FF044694B30E
:10A7F000B6480088201A012824D9601EB34A121DC9
:10A8000002EB001110226846FCF752F8AF4B1B8890
:10A81000E31A1A01AD4B1E881B1D03EB06111B1F0B
:10A820001B885B1CA94E361D06EB0310FCF76BF86A
:10A83000311F0A88091D01EB021010226946FCF73E
:10A8400037F800BFA1480088401CA049088008468E
:10A850004088401E48807FBD2DE9F041074688466C
:10A8600015461E4600BF9948008898494988084403
:10A87000142802DB0020BDE8F08100BF9348008867
:10A88000924A5288811832460020FFF78FFF00BBA2
:10A890008E4B5B881A018D4BB3F800C01B1D03EB78
:10A8A0000C111B1F1B885B1CDFF820C20CF1040C71
:10A8B0000CEB0310FCF727F8844804880088401C40
:10A8C0008249088000218148001D00EB04100170BE
:10A8D0000CE03046FFF77EFF7C4800887B4A5288B8
:10A8E000811832460020FFF761FF441E7748001DA3
:10A8F00000EB041047707548001D00EB0410C660A3
:10A900004FB905B96D1C4FF0010800216F48001DBB
:10A9100000EB041001706D48001D00EB0410A0F85E
:10A9200002806A48001D00EB041045600021674862
:10A93000001D00EB0410816001209CE770B5054606
:10A9400062480088614A528881182A460020FFF731
:10A950002DFF044604B35D4B1B885C4E7688334460
:10A960001B1B1A01594B1B1D03EB0411631E574E91
:10A97000361D06EB0310FBF7C6FF301F0088A04210
:10A9800005D2301F4088401E311F488004E04F48E8
:10A990000088401E4D49088070BD7FB505464B4874
:10A9A00001882A460020FFF701FF044654B3601EC9
:10A9B000464A121D02EB001110226846FBF778FF91
:10A9C000424B1B881B1B1A01404B1B1D03EB041140
:10A9D000631E3E4E361D06EB0310FBF794FF311F3E
:10A9E0000988491E8AB2311F0A80091D01EB021035
:10A9F00010226946FBF75CFF301F4088401C311F66
:10AA0000488000BF7FBD70B50024304C241D27E076
:10AA1000207820B3E56800202070607830B10128EC
:10AA200007D002280FD0032816D10EE00120207095
:10AA300000BF6188481E608021B92846FFF77EFF6D
:10AA4000103C0AE000BFA84707E0A84718B928460D
:10AA5000FFF774FF103C00E000BF00BF00BF1034E0
:10AA60001A480188001D00EB0110A042D0D870BD2B
:10AA70001648001D0AE08168491C816042689142C5
:10AA800003D3002181600121017010300F490A8831
:10AA9000091D01EB02118142EDD8704770B50446E3
:10AAA0000A480088094A5288811822460020FFF788
:10AAB0007DFE05460DB9002070BD04480088801C4D
:10AAC000A84201DD0120F7E70220F5E7F41C002091
:10AAD00030B50246002011460B889B0B33B1012B89
:10AAE0001CD0022B31D0032B52D13DE00B7803F068
:10AAF0003F0303EB83035B000C88C4F38514C4EBB2
:10AB0000041404EB840403EBC4040B88C3F3013383
:10AB100040F265456B4304EB43103AE00B7803F0D9
:10AB20003F034FF4167463430C88C4F3841440F25B
:10AB300065456C4303EB44140B88C3F3C22340F612
:10AB40002F556B4304EB032023E00B7803F01F0326
:10AB500048F6A04463430C88C4F3481440F62F55CC
:10AB60006C4303EB042014E00B7803F00F030C8814
:10AB7000C4F3051404EB840403EB44030C88C4F30E
:10AB80008324C4EB041404EB840403EBC40000BF6F
:10AB900000BF00BF30BD01B56946BDF80000800BA5
:10ABA00030B1012811D002281CD003282FD121E078
:10ABB000087800F03F003B2804DC0888C0F38510CB
:10ABC0003B2801DD002008BD23E00888C0F3841085
:10ABD000172804DC087800F03F003B2801DD002046
:10ABE000F1E716E0087800F01F00172801DD0020CB
:10ABF000E9E70EE0087800F00F00092804DC088877
:10AC0000C0F305103B2801DD0020DCE701E0002057
:10AC1000D9E700BF0120D6E70146C1F30D000028A7
:10AC200001DD012070470020FCE770B506460C46A8
:10AC300015463046FFF7F0FF40B92046FFF7ECFF1E
:10AC4000002801DC002D01DD002070BD3046FFF73B
:10AC5000A2FF08B90020F8E72046FFF79CFF08B9DB
:10AC60000020F2E70120F0E770B504460D4600260B
:10AC70000AE0227961882088FFF7D7FF08B9002011
:10AC800070BD641D701CC6B2AE42F2DB0120F7E756
:10AC9000F0B5A1B00446A07800282ADDA778E51C0D
:10ACA00021E0A878802802DD0F2021B0F0BD02202D
:10ACB0008DF80400A878C21C29460DF10500FBF7A9
:10ACC000F7FD01A8FBF7DEFE0646012E08D0BDF811
:10ACD0000500A4F8030066710320A0700220E4E7D9
:10ACE000A878C01C0544E01C3844A842D9D80120EB
:10ACF000DBE70F20D9E770B588B00446A0780028BC
:10AD000026DDA678E51C1DE0A8780D2802DD0F20C1
:10AD100008B070BDA87800F1080229466846FBF724
:10AD2000C7FD6846FCF787FD48B9BDF80100A4F8E7
:10AD300003001C2161710320A0700220E8E7A878BD
:10AD400008300544E01C3044A842DDD80120DFE78C
:10AD50000F20DDE72DE9F043C1B007460C4616464B
:10AD600000202070B878002840DD97F8029001A8F4
:10AD700000EB090580464A46F91C4046FBF798FD62
:10AD80002EE00520287018F8010B687018F8010BE8
:10AD9000A8700020E8702846FBF774FE01281FD138
:10ADA00069782278501C2070B154A9782278501C00
:10ADB0002070B154E878401EC1B2E9702278501C6E
:10ADC0002070B154EA7821788819691DFBF770FD6D
:10ADD0002078E978084420702078C82800DD03E056
:10ADE00001A848444045CCD800BF50E04FF00008CF
:10ADF000387800EB8000634901EB8000C56800BF34
:10AE0000287901282DD138788DF8000128788DF81F
:10AE1000010100208DF80201E86810B32078C01C01
:10AE200082190DF2031140A8EB689847012818D148
:10AE300039782278501C2070B15429782278501C1F
:10AE40002070B1549DF803112278501C2070B15429
:10AE500020789DF80311084420702078C82800DD70
:10AE600013E0397801EB8101464A02EB8101086960
:10AE7000804708F10101C9B28846884205DD05F125
:10AE8000140005460068FF28BAD900BF00BF0120A2
:10AE900041B0BDE8F08370B5044603F0EFF9054614
:10AEA000A078012801D00F2070BDE078A84201D31E
:10AEB0000E20F9E7E078A8B903F0E0F905460EE0C6
:10AEC0006D1E05EB85002F4901EB8000806830B1D5
:10AED00005EB85012B4A02EB810188688047002D34
:10AEE000EED10FE0E07800EB8000264901EB800016
:10AEF000806838B1E17801EB8101224A02EB8101DF
:10AF000088688047204B3222C8210120FFF7A4FC2B
:10AF10000120C9E7F0B5B3B004460E46002704EBA4
:10AF20008400184901EB8000C5688DF804408DF855
:10AF3000056000208DF8060000BF2868B0420CD1E3
:10AF4000E86850B102AA511E01A8EB689847012891
:10AF500003D19DF8070033B0F0BD04EB8401094A2A
:10AF600002EB810108698047791CC9B20F4688420B
:10AF700005DD05F1140005460068FF28DDD9002035
:10AF8000E9E70000F8FA00086BD0000870B5044645
:10AF90000025FCF7D7F90646A07900F0030008B1B8
:10AFA000212070BDB74800684FF00061D1F88813C8
:10AFB000451A20688068A84201D92020F1E74FF4A3
:10AFC0008072002104F10800FBF794FCAE4A0421D2
:10AFD000706802F086F822689168AA4A121F106809
:10AFE00002F044F8DDE7F8B504460025A7480090D4
:10AFF000FCF7A8F90646A6480078F02844D1207945
:10B00000022832D107200059A24909688860A14965
:10B01000E06809684860E07A9E4988719E4809683E
:10B0200008609C48006880689A498979B0FBF1F013
:10B03000984909688968974A9279B1FBF2F302FB53
:10B04000131109B1012100E00021084491498880D1
:10B050000846FFF79BFF0546012804D1F1208C49E3
:10B0600008700120F8BD2846FCE72079012814D19A
:10B070006A460421306902F034F88249091F0868E1
:10B0800002F00BFF0020EDE781480078F12801D1A4
:10B090000120E7E700207E4908700E20E2E72DE955
:10B0A000F04104460D4617467A488088401EA0426B
:10B0B00001D3C82D02DD0020BDE8F081610975488B
:10B0C000083050F8210004F01F020121914008408F
:10B0D000F0B96C48001F00686E49897904FB0106CD
:10B0E0003A462946304601F0DBFF78B161096948EC
:10B0F000083050F8210004F01F020121914008435C
:10B1000062096449083141F8220001E00020D3E7D8
:10B110000120D1E730B502460B4600210020107017
:10B1200014E04C095B48083050F8240001F01F057A
:10B130000124AC40204040B923F8021B1078801C49
:10B1400010701078642800DD04E0491C51488088A4
:10B150008842E6D800BF107808B9012030BD002031
:10B16000FCE770B505460C46A9B2464A121F1068A6
:10B17000FBF792FF201A84B20CB9012070BD0020A9
:10B18000FCE710B586B0FCF7DDF8044602F05BF88A
:10B190003D49086001AA1421A06801F097FF394ACF
:10B1A000121F12684FF00063D3F88433D11A354A66
:10B1B000083A106801F05AFF01AA1421A06801F0B2
:10B1C0006FFF30B1304A0C21606801F069FF06B0B2
:10B1D00010BD0020FBE770B50646FCF7B3F8054646
:10B1E0006C692E48066011E002F02DF82168884253
:10B1F00005D12A4A1021204601F052FF70BD274A8E
:10B20000121D0C21201D01F061FF10341D48001D8E
:10B210000068A042E8D8224A1021286901F056FFB0
:10B22000184A121D12684FF00063D3F88C33D11AFC
:10B23000286901F01BFF1A4A1021286901F030FF2C
:10B240003046FFF7C8FFD9E770B5FCF77BF8054635
:10B250006C6906E001F0F7FF2168884200D105E043
:10B2600010340848001D0068A042F3D800BF103C0D
:10B270002068492804D320685D2801D8207870BD53
:10B280005320FCE78C030008481E0020A53CC35A4D
:10B290002400002028000020558778AA541E002092
:10B2A000381E002010B5AF4B0122FF210020FDF712
:10B2B0002AFE10BD30B5C1B004464FF4807101A81C
:10B2C00003F092FD02F0DAFF054619E014B1A54241
:10B2D00001D005B1A4B98DF804509DF808100DF106
:10B2E0000A000A18C11E01A8FFF734FD8DF80900F5
:10B2F0009DF808009DF807100844C0B28DF80800BA
:10B30000281EA5F10101CDB2E0D19DF80800401C36
:10B31000C0B28DF808009DF808200DF10903002146
:10B320000846FDF7D1FD41B030BD10B502F080FEFA
:10B330004FF46161B0FBF1F201FB120000EB400140
:10B34000C1EBC010884901EBC004884B22460021A4
:10B350000846FFF781FA0020FFF7ACFF10BD70B57B
:10B36000044680480470012C02D14FF47A7500E045
:10B37000052534B97D4B40F6B83200210846FFF769
:10B380006BFA7B4B2A4600210846FFF765FA70BD31
:10B3900010B502F073FF044634E004EB84007549F5
:10B3A00001EB4000007A30B304EB4400724901EB3A
:10B3B0008000007A012825D104EB440051F82000D8
:10B3C000401C04EB44016C4A42F8210000EB800071
:10B3D00004EB440102EB81014968B1EB800F11D805
:10B3E0002046FFF767FF002004EB4401624A02EBAE
:10B3F0008101087206E0002004EB44015E4A02EB82
:10B4000081010872601EC0B2041EC6D101240AE088
:10B4100004EB4400584901EB8000007A012800D178
:10B4200010BD601CC4B202F029FFA042F0DCAFF2F4
:10B430009F00FFF783FA00BFF2E770B506461EB122
:10B440003446701CC5B203E0012402F017FF054624
:10B4500035E004EB8400474901EB4000007A28B353
:10B4600002F0DEFD04EB8401424A02EB4101497A1D
:10B47000B0FBF1F201FB12006421484300EB8000B5
:10B4800040F6C41101EB400004EB44013A4A02EBE0
:10B4900081014860002004EB440142F821000120B2
:10B4A00004EB440102EB8101087206E0002004EB8A
:10B4B0004401314A02EB81010872601CC4B2AC4203
:10B4C000C7DBAFF23313142200210220FFF7C4F9C7
:10B4D00070BDF0B5C1B005460E46174600244FF4C6
:10B4E000807101A803F080FC31462846FFF712FD69
:10B4F0000446A4B101208DF804008DF805508DF8A4
:10B5000006608DF807402246394602A8FBF7D0F9BD
:10B51000201DC2B201AB00210846FDF7D5FC41B0A9
:10B52000F0BD0EB503208DF8000014480068CDF87A
:10B53000010012484068CDF805001048407A401CD0
:10B54000C0B20E4948728DF809000A2269460C48BB
:10B55000FBF757FC20B9002202210846FCF7A2FAAB
:10B560000EBD00003001002080EE36002BB3000835
:10B57000A5B20008BC230020641E0020841F002008
:10B58000100C002010B540F227320021FE48006860
:10B59000FBF7B0F900224FF440714800FCF746FA7F
:10B5A000002227214FF44060FCF740FA10BD2DE93E
:10B5B000F05F8246504603F0D5FD80460022F34BF3
:10B5C00003F0E4FD064600224FF0814303F0DEFC69
:10B5D000044603F083FD834600222821FCF726FA67
:10B5E000BDE8F09F10B5012404E02046FFF7DFFF1F
:10B5F000601CC4B202F042FEA042F6DC10BD10B5E1
:10B60000044604EB8400E24901EB8000406838B155
:10B6100004EB84000A4602EB80004168204688471C
:10B6200010BD10B5002404E02046FFF7E8FF601CC1
:10B63000C4B202F023FEA042F6DC10BD10B50446F1
:10B640004FF0FF3004EB8401D24A42F81100002091
:10B6500004EB840102EB41018880012004EB8401AA
:10B6600002EB41018871002004EB840102EB4101EF
:10B67000C871012004EB840102EB41010872032030
:10B6800004EB840102EB4101487204EB8401134690
:10B6900003EB4102210101F180000A21FCF78AF944
:10B6A00010BD10B5002404E02046FFF7C7FF601C62
:10B6B000C4B202F0E3FDA042F6DC10BD10B54FF0BD
:10B6C000FF30B5490860002002F012FCB249486022
:10B6D000022008720020487214220021AE480A306D
:10B6E000FBF708F90020AC4988770A461F21402063
:10B6F000FCF760F910BD38B50446A8A000680090BA
:10B70000FFF7DCFFFFF7CDFFFFF78BFFFFF76AFFC7
:10B71000FFF738FF0120FDF74FF9022C02D16846F0
:10B72000FCF716FC0120FFF71AFE38BD10B5002209
:10B7300040211046FCF77AF910BD10B5964A1F213A
:10B740004020FCF7FBF89449486802F0D1FBC0B1F7
:10B75000AFF21903322200210846FFF77DF8904826
:10B760000078401CC0B28E490870032812DDAFF289
:10B770003500FFF7E3F8FFF7D9FF0120FFF7BBFF24
:10B7800008E087480078002804DD0020844908701C
:10B7900002F076FD10BD38B50446A0006A460421CB
:10B7A000FCF7CCF80098401C0090A0006A460421E9
:10B7B000FCF700F938BD70B504460D4640202070F6
:10B7C00021782A460020FCF7B9F870BD70B505460F
:10B7D0000C467149611A01F1400022462946FCF7E6
:10B7E000E9F870BD70B504460D4609E004EB84012C
:10B7F00005EB4102210101F180000A21FCF79EF8CE
:10B80000201EA4F10101CCB2F0D170BD2DE9F041B0
:10B8100005460C465F48261A0A20B6FBF0F00001E8
:10B8200080300A21B6FBF1F201FB12614718224673
:10B8300029463846FCF7BEF8BDE8F0812DE9FF4700
:10B8400006460F4600244FF0040AFBF77BFD8046B6
:10B85000D8F800500096DFB901E0601CC4B2042C97
:10B8600007DA01F0F0FC05F10C0151F824108842D0
:10B87000F3D1042C0ADA0C2101EB840148196A4641
:10B88000042101F00DFC04B0BDE8F0872320FAE7A5
:10B8900001F0D9FC00F0FF090C22494601A8FBF792
:10B8A00029F86A46102105F10C0001F01AFCEAE7BC
:10B8B0002DE9F0410024FBF745FD064635680427D5
:10B8C00001E0601CC4B2042C07DA01F0BCFC05F1F5
:10B8D0000C0151F824108842F3D184B1601E05F1A7
:10B8E0000C0151F8200050B1601E51F82000B0F159
:10B8F000FF3F04D0601E51F82000BDE8F081012018
:10B90000FBE72DE9F74F8CB08946144600200A90DA
:10B910002546E11704EB5171C81003F00CFCCDE98A
:10B920000601484603F01EFC064600221D4B03F0AC
:10B930002DFCCDE904010C9803F014FC064600220E
:10B94000124B03F023FC00224FF08143CDE90001AC
:10B9500003F01CFBCDE90201DDE9042303F016FB33
:10B960008246DDE9062303F011FBCDE9080103F06F
:10B97000B5FB80460AAA0121FBF7E0FF402C61DA03
:10B98000E11704EB51710FE0340100200000444046
:10B99000F8FA0008BC230020841F002000F801539F
:10B9A0003801002000002040C910A4EBC102012191
:10B9B00091409DF828201140002943D02046E117EE
:10B9C00004EB5171C910A4EBC102012191409DF813
:10B9D00028208A430A92A246E11704EB5171C8104D
:10B9E00003F0A9FBCDE90601484603F0BBFB054681
:10B9F0000022FE4B03F0CAFBCDE902010C9803F0D4
:10BA0000B1FB07460022FA4B03F0C0FB05460022BB
:10BA10004FF0814303F0BAFACDE90001DDE90223DA
:10BA200003F0B4FACDE90401DDE9062303F0AEFA30
:10BA3000CDE9080103F052FB83460AAA0121FBF776
:10BA4000B9FF27E0FF2C25D1484603F08BFB0546C4
:10BA50000022E64B03F09AFBCDE904010C9803F0B9
:10BA600081FB07460022E24B03F090FB05460022D3
:10BA70004FF0814303F08AFA8246DDE9042303F0A4
:10BA800085FACDE9060103F029FB0022082109907F
:10BA9000FBF7CCFF0FB0BDE8F08F2DE9F74F8CB06E
:10BAA0008946144600200A902546E11704EB51719F
:10BAB000C81003F040FBCDE90601484603F052FBF5
:10BAC00006460022C94B03F061FBCDE902010C9848
:10BAD00003F048FB0022C64BCDE9000103F056FB02
:10BAE000064600224FF0814303F050FA8246DDE91A
:10BAF000022303F04BFACDE90401DDE9062303F04C
:10BB000045FACDE9080103F0E9FA80460AAA0121C5
:10BB1000FBF714FF402C50DAE11704EB5171C91008
:10BB2000A4EBC102012191409DF828201140002979
:10BB300043D12046E11704EB5171C910A4EBC102B7
:10BB4000012191409DF828201143C9B20A91A246D3
:10BB5000E11704EB5171C81003F0EDFACDE90601CD
:10BB6000484603F0FFFA05460022A04B03F00EFB07
:10BB7000CDE902010C9803F0F5FA074600229C4B30
:10BB800003F004FB054600224FF0814303F0FEF969
:10BB9000CDE90001DDE9022303F0F8F9CDE9040164
:10BBA000DDE9062303F0F2F9CDE9080103F096FA86
:10BBB00083460AAA0121FBF7FDFE0FB0BDE8F08F16
:10BBC0002DE9F74F8CB08946144600200A90A24612
:10BBD000E11704EB5171C81003F0ADFACDE906018D
:10BBE000484603F0BFFA05460022804B03F0CEFA28
:10BBF000CDE902010C9803F0B5FA074600227C4B10
:10BC000003F0C4FA054600224FF0814303F0BEF969
:10BC1000CDE90001DDE9022303F0B8F9CDE9040123
:10BC2000DDE9062303F0B2F9CDE9080103F056FA85
:10BC300083460AAA0121FBF781FEE11704EB51714B
:10BC4000C910A4EBC102012191409DF828201140A8
:10BC500019B101200FB0BDE8F08F0020FAE710B550
:10BC600064484FF4407102684800FBF767FE614882
:10BC7000026802F5407227214FF44060FBF75EFE38
:10BC800010BD2DE9F041064600242EB902F0F6FA67
:10BC9000B04201DABDE8F0815EE004EB44005549B2
:10BCA000096808444078B6EBD00F53D104EB440048
:10BCB0005049096808448578F5B1382D1CDC681EA8
:10BCC000C21700EB5272D3104A4A126802F548724A
:10BCD000D25C691ECB1701EB5373DB10A1EBC307DA
:10BCE0000123BB409A43C31700EB5373DF10414B52
:10BCF0001B6803F54873DA55E21704EB5272D31050
:10BD00003C4A126802F54072D25C2146E31704EB0C
:10BD10005373DB10A4EBC3070123BB409A432046B7
:10BD2000E31704EB5373DF10324B1B6803F54073CA
:10BD3000DA5504EB44012F4A1268881803220021C7
:10BD4000FAF7D8FD04EB440101F5C060002203219D
:10BD5000FBF76CFE601C84B2FF2C9EDD2548026858
:10BD600002F5407227214FF44060FBF723FE00BF2D
:10BD700090E730B503460C4600211DE001EB410081
:10BD80001C4D2D6828444078B3EBD00F12D101EB45
:10BD90004100184D2D682844407800F00700A0426B
:10BDA00008D101EB4100134D2D68285C904201D170
:10BDB000084630BD481C81B2FF29DFDD4FF6FF7019
:10BDC000F7E770B50446E21704EB5272D310094A44
:10BDD000126802F54072D25C2146E31704EB5373FC
:10BDE000DB10A4EBC3050123AB4005E000002040BD
:10BDF00000004440340100209A432046E31704EB3E
:10BE00005373DD10F74B1B6803F540735A552546F5
:10BE1000E11704EB5171CB10F249096801F540714B
:10BE20005A182646E11704EB5171C91001F540601C
:10BE30000121FBF7BFFD04EB4401EA4A12688818B0
:10BE400003220021FAF756FD04EB440101F5C0601E
:10BE500000220321FBF7EAFD70BD70B504462046C1
:10BE6000E21704EB5272D310DE4A126802F54072F8
:10BE7000D25C2146E31704EB5373DB10A4EBC3053C
:10BE80000123AB401A43D3B2E21704EB5272D51030
:10BE9000D44A126802F5407253552546E11704EB67
:10BEA0005171CB10CF49096801F540715A182646E7
:10BEB000E11704EB5171C91001F540600121FBF756
:10BEC00079FD70BD70B50446601EC21700EB52725A
:10BED000D310C44A126802F54872D25C611ECB17B7
